:100000000C9432010C945A010C945A010C945A012C
:100010000C945A010C945A010C945A010C945A01F4
:100020000C945A010C945A010C945A010C945A01E4
:100030000C945A010C945A010C945A010C945A01D4
:100040000C94F4080C945A010C94C2080C949C086B
:100050000C945A010C945A010C945A010C945A01B4
:100060000C943E090C945A01000000002400270063
:100070002A0000000000250028002B0000000000DE
:1000800023002600290004040404040404040202DA
:100090000202020203030303030301020408102007
:1000A0004080010204081020010204081020000012
:1000B0000008000201000003040700000000000027
:1000C00000001F1C1F1E1F1E1F1F1E1F1E4A616EC9
:1000D0004665624D61724170724D61794A756E4A32
:1000E000756C4175675365704F63744E6F764465E8
:1000F000630053756E4D6F6E547565576564546833
:1001000075467269536174004F5A412050495045F9
:100110002046495454494E470020202020202020CA
:100120004F2B202020202020200020202020505253
:10013000455353204F4B2020202000444953434F28
:100140004E4E2E2046495454494E47002020202030
:10015000434F4D504C455445202020200020204640
:100160005553494F4E204359434C4520200050726F
:1001700065737320737461727420202020200050F6
:100180006970652052656164793F2020202020003D
:10019000566F6C3A203430205365633A200020209B
:1001A00044693A00547970653A004D616E75616C2E
:1001B0002020202020282D29202000426172636FFA
:1001C000646520202020282B292020002043004186
:1001D0006D622E2054656D703A00727463206E6FEC
:1001E000742072756E6E696E6720006E6F20727477
:1001F0006320666F756E642020202000313233202A
:100200002020202020202020202020200050726F3D
:10021000647563742053722E204E6F2E3A00202096
:100220002020202020202020202020202020004CC2
:10023000616E67756167653A20456E672020200012
:10024000566F6C7461676520203A20343056414304
:10025000004672657175656E63793A203530487A6B
:1002600020005D0A11241FBECFEFD8E0DEBFCDBF56
:1002700023E0ACE8B1E001C01D92AB31B207E1F779
:1002800011E0A0E0B1E0EEEEF3E202C005900D92C5
:10029000AC38B107D9F711E0C2E3D1E004C021972F
:1002A000FE010E94FD0FC133D107C9F70E94B30AB6
:1002B0000C94F5110C94000008950895AF92BF922C
:1002C000CF92DF92EF92FF920F931F93CF93DF9322
:1002D0006C017B018B01040F151FEB015E01AE1851
:1002E000BF08C017D10759F06991D601ED91FC9173
:1002F0000190F081E02DC6010995892B79F7C501A0
:10030000DF91CF911F910F91FF90EF90DF90CF90F1
:10031000BF90AF900895FC01538D448D252F30E0A0
:10032000842F90E0821B930B541710F0CF96089502
:1003300001970895FC01918D828D981761F0A28D2F
:10034000AE0FBF2FB11D5D968C91928D9F5F9F73F5
:10035000928F90E008958FEF9FEF0895FC01918DAB
:10036000828D981731F0828DE80FF11D858D90E018
:1003700008958FEF9FEF0895FC01918D228D892FB5
:1003800090E0805C9F4F821B91098F73992708959D
:1003900086E592E00E94BC0121E0892B09F420E06F
:1003A000822F089580E090E0892B29F00E94C801F7
:1003B00081110C9400000895FC01A48DA80FB92FA1
:1003C000B11DA35ABF4F2C91848D90E001968F737D
:1003D0009927848FA689B7892C93A089B1898C919C
:1003E000837080648C93938D848D981306C00288EB
:1003F000F389E02D80818F7D80830895EF92FF92B5
:100400000F931F93CF93DF93EC0181E0888F9B8D37
:100410008C8D98131AC0E889F989808185FF15C0F1
:100420009FB7F894EE89FF896083E889F989808114
:100430008370806480839FBF81E090E0DF91CF91E3
:100440001F910F91FF90EF900895F62E0B8D10E005
:100450000F5F1F4F0F731127E02E8C8D8E110CC074
:100460000FB607FCFACFE889F989808185FFF5CFBF
:10047000CE010E94DC01F1CFEB8DEC0FFD2FF11DC1
:10048000E35AFF4FF0829FB7F8940B8FEA89FB89FC
:1004900080818062CFCFCF93DF93EC01888D88235A
:1004A000B9F0AA89BB89E889F9898C9185FD03C0D7
:1004B000808186FD0DC00FB607FCF7CF8C9185FFBC
:1004C000F2CF808185FFEDCFCE010E94DC01E9CF24
:1004D000DF91CF910895833081F028F4813099F035
:1004E0008230A9F008958730A9F08830C9F08430AF
:1004F000B1F4809180008F7D03C0809180008F7760
:1005000080938000089584B58F7784BD089584B565
:100510008F7DFBCF8091B0008F778093B0000895DE
:100520008091B0008F7DF9CFCF93DF93282F30E0FB
:10053000F901E255FF4F8491F901E656FF4FD4913E
:10054000F901EA57FF4FC491CC23A1F081110E9419
:100550006B02EC2FF0E0EE0FFF1FE458FF4FA59168
:10056000B491EC91ED2381E090E009F480E0DF911B
:10057000CF91089580E090E0FACF1F93CF93DF935F
:10058000282F30E0F901E255FF4F8491F901E6563A
:10059000FF4FD491F901EA57FF4FC491CC23A9F042
:1005A000162F81110E946B02EC2FF0E0EE0FFF1F5F
:1005B000EE58FF4FA591B4918FB7F894EC911111BB
:1005C00008C0D095DE23DC938FBFDF91CF911F91C0
:1005D0000895DE2BF8CFCF93DF9390E0FC01E65631
:1005E000FF4F24918A579F4FFC0184918823D1F0BB
:1005F00090E0880F991FFC01E859FF4FA591B49135
:10060000FC01EE58FF4FC591D49161110EC09FB708
:10061000F8948C91E22FE0958E238C932881E2232D
:10062000E8839FBFDF91CF9108958FB7F894EC9145
:10063000E22BEC938FBFF6CF3FB7F8948091D501B2
:100640009091D601A091D701B091D80126B5A89B71
:1006500005C02F3F19F00196A11DB11D3FBFBA2F54
:10066000A92F982F8827BC01CD01620F711D811D14
:10067000911D42E0660F771F881F991F4A95D1F799
:1006800008958F929F92AF92BF92CF92DF92EF9296
:10069000FF924B015C010E941C036B017C010E94D4
:1006A0001C036C197D098E099F09683E7340810502
:1006B0009105A8F321E0821A9108A108B10888EEFB
:1006C000C80E83E0D81EE11CF11C81149104A10422
:1006D000B10429F7FF90EF90DF90CF90BF90AF90DB
:1006E0009F908F9008952091AD01260F3327331FDF
:1006F00021323105ECF420915002FC0190E080E0C1
:10070000243069F082E00895A091AD012191AC01FF
:1007100043575E4FA40FB52FB11D2C93019686173A
:1007200098F38091AD01680F6093AD0180E008956A
:1007300081E008951092500281E080932F02109280
:100740002A0261E082E10E94BD0261E083E10E9431
:10075000BD02E9EBF0E080818E7F808380818D7F18
:10076000808388E48093B80085E48093BC0008957A
:10077000CF93DF9391E090938C018823B9F0C091DF
:10078000B800D091BA008091BC008A7B8093BC00F5
:1007900060E082E10E94BD0260E083E10E94BD0250
:1007A0000E949A03D093BA00C093B800DF91CF9112
:1007B0000895CF92DF92EF92FF920F931F93CF9302
:1007C000DF93D82FC62F613208F098C00E941C0317
:1007D0006B017C018091500281116BC081E080939C
:1007E000500280932F029FEF90932E0210922D02C1
:1007F0009C0F90932C0280932B0280912B02DD0F93
:10080000D82BD0932B0280912A02813009F078C036
:1008100010922A020E941C036B017C0180912B0222
:100820008093BB008091520290915302A091540298
:10083000B0915502892B8A2B8B2BA1F00E941C03AF
:1008400000915202109153022091540230915502AE
:100850006C197D098E099F090617170728073907A4
:1008600008F448C08091BC0083FDD8CF85EC80930C
:10087000BC000E941C036B017C01809150028130FE
:1008800009F440C080912D028C1710F4C0912D0204
:10089000EAE0F2E0A0E3B2E080E08C1355C08C2FD8
:1008A000DF91CF911F910F91FF90EF90DF90CF904C
:1008B00008958091520290915302A0915402B091F8
:1008C0005502892B8A2B8B2B09F484CF0E941C03A1
:1008D000009152021091530220915402309155021E
:1008E0006C197D098E099F09061717072807390714
:1008F00008F070CF809151020E94B803C0E0CFCFC2
:1009000085EEB5CF8091520290915302A09154028E
:10091000B0915502892B8A2B8B2B09F4AECF0E9404
:100920001C03009152021091530220915402309105
:1009300055026C197D098E099F09061717072807AC
:10094000390708F09ACFD6CF91919D938F5FA5CFAD
:100950008F929F92AF92BF92CF92DF92EF92FF92CF
:100960000F931F93CF93DF93D0910902D13208F0F8
:10097000D7C0182FC09108020E941C036B017C0194
:100980008091500281116BC082E0809350021093DD
:100990002F028FEF80932E0210922D02D0932C0203
:1009A000A8EEB1E0EAE0F2E080E0D81391C0109246
:1009B0002B0280912B02CC0FC82BC0932B0280916D
:1009C0002A02813009F088C010922A020E941C037A
:1009D0006B017C0180912B028093BB0080915202BD
:1009E00090915302A0915402B0915502892B8A2B09
:1009F0008B2BA1F00E941C03009152021091530214
:100A000020915402309155026C197D098E099F097D
:100A1000061717072807390708F442C08091BC0061
:100A200083FDD8CF85EC8093BC000E941C036B0132
:100A30007C0180915002823009F450C080912E02D6
:100A40008F3F09F46FC080912E02803209F46CC090
:100A500080912E02803309F469C084E026C0809121
:100A6000520290915302A0915402B0915502892BE9
:100A70008A2B8B2B09F484CF0E941C038090520296
:100A800090905302A0905402B09055026C197D09C9
:100A90008E099F0986169706A806B90608F070CF3A
:100AA000809151020E94B80385E01092E7011092F4
:100AB00009021092E601DF91CF911F910F91FF90F3
:100AC000EF90DF90CF90BF90AF909F908F90089560
:100AD0009D9191938F5F69CF85EEA5CF8091520252
:100AE00090915302A0915402B0915502892B8A2B08
:100AF0008B2B09F49ECF0E941C030091520210918F
:100B0000530220915402309155026C197D098E09CF
:100B10009F09061717072807390708F08ACFC0CFA3
:100B200081E0C3CF80E0C1CF82E0BFCF83E0BDCF03
:100B30000895E091DE018091DD01E81730F4F0E0E6
:100B4000E05DFD4F808190E008958FEF9FEF089565
:100B50009091DE018091DD012FEF3FEF981748F46F
:100B6000E92FF0E0E05DFD4F208130E09F5F909342
:100B7000DE01C90108958091DD019091DE01891B9C
:100B8000990B0895CF92DF92EF92FF920F931F93EC
:100B9000CF93DF937C01CB018A012091E6012223D0
:100BA00089F0EB016B01C40ED51ECC15DD0569F093
:100BB0006991D701ED91FC910190F081E02DC70181
:100BC0000995F3CF642F0E947303C801DF91CF9181
:100BD0001F910F91FF90EF90DF90CF900895CF93EA
:100BE000DF931F92CDB7DEB769832091E601222300
:100BF000F9F020910902203258F021E030E0FC01A8
:100C00003383228390E080E00F90DF91CF910895AD
:100C10008091E701E82FF0E0E851FE4F9981908341
:100C20008F5F8093E7018093090281E090E0ECCF31
:100C300061E0CE0101960E947303F7CF089590E022
:100C400080E00895FB0101900020E9F73197AF01A2
:100C5000461B570BDC01ED91FC910280F381E02DE6
:100C600009948F929F92AF92BF92EF92FF920F934F
:100C70001F93CF93DF93CDB7DEB7A1970FB6F8944C
:100C8000DEBF0FBECDBF7C01FA01CB0119A222301D
:100C900008F42AE08E010F5D1F4F822E912CB12C9B
:100CA000A12CBF01A50194010E94DB0FF901CA012B
:100CB0006A300CF5605DD8016E938D01232B242BD7
:100CC000252B79F790E080E0109721F0BD01C70156
:100CD0000E942206A1960FB6F894DEBF0FBECDBFCC
:100CE000DF91CF911F910F91FF90EF90BF90AF9048
:100CF0009F908F900895695CDECFCF93DF93EC01D6
:100D000060E08E810E94BD0261E08E810E94BD0282
:100D100060E08E810E94BD028BE891E00197F1F7BF
:100D2000DF91CF910895CF92DF92EF92FF920F93D0
:100D30001F93CF93DF936C017C0187E0E80EF11CD9
:100D4000D0E0C0E0062F10E0B8010C2E02C075956F
:100D500067950A94E2F76170F70181917F010E9423
:100D6000BD022196C430D10579F7C601DF91CF913C
:100D70001F910F91FF90EF90DF90CF900C947D0624
:100D8000CF92DF92EF92FF920F931F93CF93DF9357
:100D9000EC01F62E642F8C810E94BD028D818F3F65
:100DA00019F060E00E94BD020F2D10E08F8584FFD6
:100DB00025C06E0187E0C80ED11CF12CE12CB801D2
:100DC0000E2C02C0759567950A94E2F76170F601E2
:100DD00081916F010E94BD02FFEFEF1AFF0A88E0C8
:100DE000E816F10461F7CE01DF91CF911F910F91C9
:100DF000FF90EF90DF90CF900C947D06B80184E0D7
:100E0000759567958A95E1F7CE010E9493066F2D3F
:100E1000CE01DF91CF911F910F91FF90EF90DF9066
:100E2000CF900C94930640E0682F8FEF92E00C94E3
:100E3000C006CF93DF93823029F490910E0398601F
:100E400090930E03809312031092130380E4809317
:100E5000140380E18093150380E58093160361E01D
:100E6000809103030E94EB02809104038F3F19F0ED
:100E700061E00E94EB0261E0809105030E94EB02B9
:100E8000CFEFD2E09E012F5F324080910E0384FDB0
:100E90000BC084E090E021962817390744F461E004
:100EA0008E810E94EB02EECF88E090E0F4CF8BE3DE
:100EB0009DE00197F1F760E0809103030E94BD027D
:100EC00060E0809105030E94BD02809104038F3F82
:100ED00019F060E00E94BD0280910E0384FD39C0CC
:100EE00063E08FEF92E00E949306CBE4D6E4CE015C
:100EF0000197F1F763E08FEF92E00E94930621974C
:100F0000F1F763E08FEF92E00E94930683E592E0B1
:100F10000197F1F762E08FEF92E00E9493068091D3
:100F20000E0380620E94130784E080930F038CE01D
:100F30000E94130781E00E9413078BE39FE1019752
:100F4000F1F782E08093100386E0DF91CF910C945B
:100F5000130780620E9413078BE496E40197F1F770
:100F600080910E0380620E94130783E592E001974F
:100F7000F1F780910E0380620E941307D0CF909109
:100F80001203891710F08FEF890FE82FF0E0E1507E
:100F9000FD4F848980680C94130741E00E94C006CD
:100FA00081E090E008950F931F93CF93DF938C011E
:100FB000D0E0C0E0F801EC0FFD1F6491662339F02A
:100FC00041E08FEF92E00E94C0062196F3CFCE0160
:100FD000DF91CF911F910F910895EF92FF920F93A0
:100FE0001F93CF93DF93EC017B018A018881998164
:100FF000009729F02A813B812417350788F4B8012E
:101000006F5F7F4F0E942811009791F0998388832A
:101010001B830A832C813D81232B11F4FC01108258
:101020001D830C83B701888199810E94EE110CC049
:1010300088819981009711F00E949F10198218826F
:101040001D821C821B821A82CE01DF91CF911F91DB
:101050000F91FF90EF900895EF92FF920F931F93DF
:10106000CF93DF93CDB7DEB762970FB6F894DEBFAC
:101070000FBECDBF8C01CB01F8011182108213820B
:101080001282158214824AE09E012F5F3F4F790140
:10109000B9010E944F0FF70101900020E9F7319745
:1010A000AF014E195F09B701C8010E94ED076296B2
:1010B0000FB6F894DEBF0FBECDBFDF91CF911F9169
:1010C0000F91FF90EF90089585ED8093BC00809183
:1010D000520290915302A0915402B091550207968A
:1010E000A11DB11D23E0B695A795979587952A95E3
:1010F000D1F72091BC0024FD03C010925002089546
:1011000040915202509153026091540270915502E5
:10111000452B462B472B69F30097A105B10541F0FC
:1011200025E32A95F1F700000197A109B109E1CF64
:10113000809151020C94B8031F920F920FB60F9238
:1011400011242F933F934F935F936F937F938F93CC
:101150009F93AF93BF93EF93FF9386E592E00E9436
:10116000DC01FF91EF91BF91AF919F918F917F91A2
:101170006F915F914F913F912F910F900FBE0F9004
:101180001F9018951F920F920FB60F9211242F9354
:101190008F939F93EF93FF93E0916602F091670224
:1011A0008081E0916C02F0916D0282FD1BC0908104
:1011B00080916F028F5F8F7320917002821741F0D0
:1011C000E0916F02F0E0EA5AFD4F958F80936F0235
:1011D000FF91EF919F918F912F910F900FBE0F90E4
:1011E0001F9018958081F4CF1F920F920FB60F9227
:1011F00011242F933F938F939F93AF93BF9380912D
:10120000D1019091D201A091D301B091D40130913C
:10121000D00123E0230F2D3758F50196A11DB11DF4
:101220002093D0018093D1019093D201A093D30158
:10123000B093D4018091D5019091D601A091D701AE
:10124000B091D8010196A11DB11D8093D501909355
:10125000D601A093D701B093D801BF91AF919F91D0
:101260008F913F912F910F900FBE0F901F90189567
:1012700026E8230F0296A11DB11DD2CF1F920F9217
:101280000FB60F9211242F933F934F935F936F9359
:101290007F938F939F93AF93BF93EF93FF9380912F
:1012A000B900887F803609F44AC0F0F5883209F425
:1012B000A7C018F5803109F49BC0B8F4882309F45D
:1012C000F9C0883009F494C0FF91EF91BF91AF91BC
:1012D0009F918F917F916F915F914F913F912F914E
:1012E0000F900FBE0F901F901895883109F488C099
:1012F000803251F780932E0214C0803409F49DC0CF
:1013000040F48033B9F38833F9F680932E0285ECEC
:10131000B0C0803509F485C0883509F496C088349A
:1013200099F60E946408D0CF883909F48CC038F54A
:10133000883729F050F4883611F0803729F683E099
:10134000809350021092CF0157C0883809F47BC0B7
:10135000803919F0803809F0B7CF8091CF01803201
:1013600008F071C0E091CF0181E08E0F8093CF0132
:101370008091BB00F0E0E155FE4F80833DC0803B93
:1013800039F0E0F4803A09F479C0883A09F09CCF4A
:1013900084E0809350021092AE011092AD01E09172
:1013A000DB01F091DC0109958091AD0181110FC045
:1013B00081E08093AD0110928D0109C0803C09F459
:1013C000A6CF883C09F4A3CF883B09F07DCFE091FC
:1013D000AE0181E08E0F8093AE01F0E0E357FE4F47
:1013E00080818093BB009091AE018091AD0129C0B6
:1013F00080912B028093BB0085EC8093BC0064CF6E
:1014000090912D0280912C02981758F5E0912D02B1
:1014100081E08E0F80932D02F0E0E65FFD4F80812A
:10142000E9CFE0912D0281E08E0F80932D02809113
:10143000BB00F0E0E65FFD4F808390912D0280912C
:101440002C029817C8F285E8D8CFE0912D0281E0F0
:101450008E0F80932D028091BB00F0E0E65FFD4F80
:10146000808380912F0281115CCF81E080932A02DA
:1014700084EA8093BC001092500226CF85EC8093C2
:10148000BC00109250028091CF01803230F4E09184
:10149000CF01F0E0E155FE4F10826091CF0170E086
:1014A000E091D901F091DA018FEA91E0099510926B
:1014B000CF010ACF10922E0234CFE6E5F2E013827C
:1014C000128288EE93E0A0E0B0E084839583A68347
:1014D000B7832AE431E03183208325EC30E035877F
:1014E000248724EC30E03787268720EC30E0318BEE
:1014F000208B21EC30E0338B228B22EC30E0358BDB
:10150000248B26EC30E0378B268B118E128E138EB7
:10151000148EE3EFF2E01382128284839583A68314
:10152000B7838CE591E091838083EFEFF2E0138243
:1015300012828EE691E09183808382E084838FEF34
:10154000858383E0868384E0878385E0808786E0E7
:10155000818787E08287138614861586168617860C
:1015600081E00C941907CF93DF93CDB7DEB7649772
:101570000FB6F894DEBF0FBECDBF789484B58260FD
:1015800084BD84B5816084BD85B5826085BD85B527
:10159000816085BD80916E00816080936E001092A5
:1015A0008100809181008260809381008091810020
:1015B00081608093810080918000816080938000B1
:1015C0008091B10084608093B1008091B00081600F
:1015D0008093B00080917A00846080937A0080913B
:1015E0007A00826080937A0080917A008160809393
:1015F0007A0080917A00806880937A001092C1000E
:1016000060E084E00E94EB0260E089E00E94EB026F
:1016100060E08AE00E94EB0260E088E00E94EB025A
:1016200061E08BE00E94EB0261E08CE00E94EB0243
:10163000E0916602F091670282E08083E0916202AD
:10164000F09163021082E0916402F09165028FECE8
:10165000808310926E02E0916A02F0916B0286E044
:101660008083E0916802F0916902808180618083CB
:10167000E0916802F0916902808188608083E09146
:101680006802F0916902808180688083E09168023D
:10169000F091690280818F7D808382E00E9419072A
:1016A00077E0872E912CECE54E2EE1E05E2EFDE5F5
:1016B0002F2EF1E03F2E60E0662E60E0762E109136
:1016C000E501183029F568EC70E080E090E00E94B8
:1016D00041034091E50150E070E060E02AE086E5DA
:1016E00092E00E943106E091E501E150E93008F016
:1016F000C9C3F0E0E158F44F80E00C94FD0F340CC6
:10170000420C4E0C5A0C800E8C0E1E0F2A0F360FF8
:101710008AE00E949402892BA9F16AE070E080E0DF
:1017200090E00E944103163009F03FC08091E4012F
:10173000811109C09091E301953010F481E0890F87
:101740008093E30132C0813051F48091E201833112
:1017500020F48F5F8093E20128C080E0FBCF8230CD
:1017600021F58091E0019091E101873E23E092070D
:1017700034F401969093E1018093E00116C090E06B
:1017800080E0F8CF88E00E949402892B09F442C0DF
:101790006AE070E080E090E00E9441031530A1F41F
:1017A00086E08093E5011092E40168EC70E080E04F
:1017B00090E00E9441038091DF01833008F052C025
:1017C0008F5F8093DF0185CF163079F78091E40138
:1017D000811108C08091E301882311F08150B0CFBE
:1017E00085E0AECF813041F48091E201882311F091
:1017F0008150B0CF83E1AECF8230B9F68091E00165
:101800009091E1011816190614F40197B3CF87EEF1
:1018100093E0B0CF89E00E949402892B31F26AE014
:1018200070E080E090E00E94410389E00E94940211
:10183000892BD9F7153009F4B8CF163061F48091AF
:10184000E401833020F48F5F8093E401AECF87E022
:101850008093E501AACF183008F0A7CF1F5F10933F
:10186000E501A3CF80E0ADCF0E94BF0781E592E004
:101870000E94D30781E00E94BF0780E492E00E94AB
:10188000D307C7C20E94BF078FE292E00E94D3072E
:1018900081E00E94BF078EE192E0F1CF0E94BF0776
:1018A0008DE092E00E94D30781E00E94BF078CEF99
:1018B00091E0E5CF0E94BF071092DE011092DD019A
:1018C0001092E701109209020E949A035092DC01E3
:1018D0004092DB013092DA012092D90111E010939D
:1018E000E60188E68093080281E00E94A804811145
:1018F0004CC11093E6011092E7011092090260E0DA
:1019000083EF92E00E94EF0581E00E94A80461E06D
:1019100088E60E94D9038093DD0183EF92E00E9464
:10192000A80587FD5EC11093E6011092E7011092B1
:10193000090260E083EF92E00E94EF0581E00E94DF
:10194000A80467E088E60E94D9031092DE01809324
:10195000DD0183EF92E00E94A8058F77282F30E009
:1019600064E0359527956A95E1F7922F990F990FC5
:10197000F22EF91AFF0CF80E83EF92E00E94A805F0
:101980009C0174E0359527957A95E1F72F70332700
:10199000922F990F990FE22EE91AEE0CE80E83EFC1
:1019A00092E00E94A8059C01E4E035952795EA9510
:1019B000E1F72F703327922F990F990FD22ED91A52
:1019C000DD0CD80E83EF92E00E94A80583EF92E031
:1019D0000E94A8059C01F4E035952795FA95E1F75A
:1019E0002F703327922F990F990F022F091B000F89
:1019F000080F83EF92E00E94A8059C01A4E03595B2
:101A00002795AA95E1F72F703327922F990F990FF9
:101A1000122F191B110F180F83EF92E00E94A805D7
:101A20009C01B4E035952795BA95E1F72F703327DF
:101A3000922F990F990F422F491B440F480F242FC3
:101A400030E05AE08D2D652F0E94BB0F805D8F83A3
:101A5000905D98878E2D0E94BB0F805D8987905D79
:101A60009A878F2D0E94BB0F805D8B87905D9C872E
:101A7000802F0E94BB0F805D8D87905D9E87B9018E
:101A80006D5F7F4F7695679576956795ADE6B1E08A
:101A90002A9FC0012B9F900D3A9F900D112405960F
:101AA0005B01A80EB91E812F652F0E94BB0F805DC0
:101AB0008B8B905D9C8BE12FE150FF0B7F01EE0C37
:101AC000FF1CEE0EFF1E970123533F4F79012F5F3E
:101AD0003F4F388B2F872F5F3F4F3A8B298B842FB7
:101AE0000E94BB0F292F0E94BB0F30E3D32ED90ECB
:101AF00050E3C52EC20E2AE731E04370D9018C9124
:101B0000883651F411968C911197883629F4EF811B
:101B1000EC93F8851196FC93D9018C918D3651F494
:101B200011968C9111978D3629F4E985EC93FA85FD
:101B30001196FC93D9018C91833751F411968C91B5
:101B40001197833729F4EB85EC93FC851196FC9370
:101B5000D9018C91843409F066C011968C9111974B
:101B6000843409F060C012968C91843409F0ADC0C1
:101B7000802F90E0E2ECF0E051E05117A8F564917D
:101B8000860F911D5F5F3196F8CF8BEE91E00E943A
:101B9000D30781E00E94BF078FEC91E00E94D3073A
:101BA0002AE040E050E0BA018FEF92E00E94310657
:101BB00041E06EE28FEF92E00E94C0062AE040E032
:101BC00050E0BA018FEF92E00E9431062AE040E037
:101BD00050E0BA018FEF92E00E9431068CEC91E068
:101BE0004ECE8AED91E0D3CF133018F0411101C0F1
:101BF00001968A0D9B1DB4010E94C70FFC01EE0FD8
:101C0000FF1F8E0F9F1F8E509F4FFC015491D901D3
:101C10005C933196E4911196EC9311970296FC0136
:101C2000849112968C93D9018C918D34C9F41196BC
:101C30008C9111978D34A1F412968C9112978D345A
:101C400009F049C0F70184918C93EF85F88984915C
:101C500011968C931197E989FA89849112968C9345
:101C6000D9018C918935D1F411968C9111978935D0
:101C7000A9F412968C911297893599F513968C9147
:101C80001397893571F5E2E3EC93F0E31196FC9339
:101C900011971296DC9212971396CC92F9018081DB
:101CA000813421F58181803511F48DE481832F5FAA
:101CB0003F4FF1E029383F0709F020CF6AE771E094
:101CC0008FEF92E00E94220664CF8D85F901808318
:101CD0009E859183A8CF8B89F90180839C8991830C
:101CE000BFCFD901DC921196CC92D8CF8136F9F6CC
:101CF000D90181818037D9F6EDE61196EC93D7CFE3
:101D00000E94BF078BEB91E00E94D30781E00E9405
:101D1000BF078AEA91E0B3CD0E94BF0784EA91E051
:101D20000E94D3078091DF0180FF06C08091E4010B
:101D300066E771E0882341F06091E30124E0629F4F
:101D4000B0011124625D7E4F8FEF92E00E94220667
:101D50008EE991E00E94D3078091DF0180FD0EC0E3
:101D6000E091E201F0E0EE0FFF1FEA5FFE4F6081BD
:101D70007181CE0101960E942C0812C08091E4016D
:101D8000813071F71A8219821C821B821E821D8289
:101D900043E050E066E771E0CE0101960E94ED0756
:101DA0004D815E8169817A818FEF92E00E945E01B0
:101DB00089819A81009711F00E949F1081E00E9412
:101DC000BF0780E991E00E94D3078091DF0180FF87
:101DD0002CC08091E401823041F51A8219821C8264
:101DE0001B821E821D8243E050E066E771E0CE0157
:101DF00001960E94ED074D815E8169817A818FEFA6
:101E000092E00E945E0189819A81009711F00E9400
:101E10009F106114710409F452CC0E94C8018823F8
:101E200009F449CC0E94000046CC6091E001709119
:101E3000E101CE0101960E942C08DDCF0E94BF0770
:101E40008FE791E00E94D30781E00E94BF078EE6F2
:101E500091E015CD0E94BF078DE591E00E94D30768
:101E600081E00E94BF078CE491E009CD0E94BF078A
:101E70008BE391E00E94D30781E00E94BF078AE2D2
:101E800091E0FDCC80E00E94BF0789E191E00E94D3
:101E9000D30781E00E94BF0788E091E0F0CCBB2728
:101EA0004A3031F4992322F4BDE2909581959F4FF9
:101EB0000C945B0FBB27FB015527AA27880F991F9E
:101EC000AA1FA41710F0A41B83955051B9F7A05D69
:101ED000AA3308F0A95DA193009779F7B111B193E6
:101EE0001192CB010C94740FDC01FC01672F7191EE
:101EF0007723E1F7329704C07C916D9370836291F0
:101F0000AE17BF07C8F308952F923F924F925F928A
:101F10006F927F928F929F92AF92BF92CF92DF92F9
:101F2000EF92FF920F931F93CF93DF93CDB7DEB75E
:101F3000CA1BDB0B0FB6F894DEBF0FBECDBF0994F2
:101F40002A88398848885F846E847D848C849B8449
:101F5000AA84B984C884DF80EE80FD800C811B8157
:101F6000AA81B981CE0FD11D0FB6F894DEBF0FBE86
:101F7000CDBFED010895991B79E004C0991F961714
:101F800008F0961B881F7A95C9F780950895AA1BBB
:101F9000BB1B51E107C0AA1FBB1FA617B70710F054
:101FA000A61BB70B881F991F5A95A9F78095909586
:101FB000BC01CD010895A1E21A2EAA1BBB1BFD0195
:101FC0000DC0AA1FBB1FEE1FFF1FA217B307E40718
:101FD000F50720F0A21BB30BE40BF50B661F771F70
:101FE000881F991F1A9469F7609570958095909550
:101FF0009B01AC01BD01CF010895EE0FFF1F0590BD
:10200000F491E02D09940F931F93CF93DF938230C7
:10201000910510F482E090E0E0911903F0911A0329
:1020200030E020E0B0E0A0E0309799F421153105D0
:1020300009F44AC0281B390B24303105D8F58A81B0
:102040009B816115710589F1FB0193838283FE01F8
:1020500011C0408151810281138148175907E0F076
:102060004817590799F4109761F012960C9312973C
:1020700013961C933296CF01DF91CF911F910F9150
:1020800008950093190310931A03F4CF2115310515
:1020900051F04217530738F0A901DB019A01BD0145
:1020A000DF01F801C1CFEF01F9CF90931A038093BC
:1020B0001903CDCFFE01E20FF31F819391932250BC
:1020C000310939832883D7CF209117033091180322
:1020D000232B41F420910201309103013093180326
:1020E0002093170320910001309101012115310542
:1020F00041F42DB73EB74091040150910501241BD6
:10210000350BE0911703F0911803E217F307A0F4E1
:102110002E1B3F0B2817390778F0AC014E5F5F4F3D
:102120002417350748F04E0F5F1F50931803409354
:102130001703819391939FCFF0E0E0E09CCFCF9382
:10214000DF930097E9F0FC01329713821282A0918D
:102150001903B0911A03ED0130E020E01097A1F4CB
:1021600020813181820F931F209117033091180332
:102170002817390709F061C0F0931803E09317039B
:10218000DF91CF910895EA01CE17DF07E8F54A8184
:102190005B819E0141155105B1F7E901FB83EA839B
:1021A00049915991C40FD51FEC17FD0761F4808147
:1021B00091810296840F951FE9019983888382811A
:1021C00093819B838A83F0E0E0E012968D919C914D
:1021D00013970097B9F52D913C911197CD01029677
:1021E000820F931F20911703309118032817390786
:1021F00039F6309751F510921A0310921903B093E3
:102200001803A0931703BCCFD383C28340815181AD
:10221000840F951FC817D90761F44E5F5F4F8881FF
:102220009981480F591F518340838A819B819383F1
:1022300082832115310509F0B0CFF0931A03E093A2
:1022400019039ECFFD01DC01C0CF13821282D7CFCC
:10225000B0E0A0E0EEE2F1E10C94860F8C01009773
:1022600051F4CB010E9403108C01C801CDB7DEB739
:10227000E0E10C94A20FFC01E60FF71F9C01225035
:102280003109E217F30708F49DC0D901CD91DC9123
:102290001197C617D70798F0C530D10530F3CE0196
:1022A00004978617970708F3C61BD70B2297C1938D
:1022B000D1936D937C93CF010E949F10D6CF5B0189
:1022C000AC1ABD0A4C018C0E9D1EA0911903B09151
:1022D0001A03512C412CF12CE12C109731F58091EF
:1022E0001703909118038815990509F05CC04616EC
:1022F000570608F058C080910001909101010097A5
:1023000041F48DB79EB74091040150910501841BA3
:10231000950BE817F90708F055C0F0931803E09300
:102320001703F90171836083A0CF8D919C91119760
:1023300012966C90129713967C901397A815B90576
:1023400059F56C0142E0C40ED11CCA14DB0420F123
:10235000AC014A195B09DA011296159780F0628286
:10236000738251834083D9016D937C93E114F1040E
:1023700071F0D7011396FC93EE93129776CF2296C5
:102380008C0F9D1FF90191838083F301EFCFF093B0
:102390001A03E093190369CF4816590608F42C0173
:1023A0007D01D3019ACFCB010E9403107C010097DD
:1023B00049F0AE01B8010E94E511C8010E949F10CA
:1023C000870153CF10E000E050CFFB01DC0102C0D9
:1023D00001900D9241505040D8F70895FB01DC0167
:0E23E00001900D920020E1F70895F894FFCFD0
:1023EE0000001B038000140019002000280032009A
:1023FE003F004B005A006E007D008C00A000B40020
:10240E00C800E100FA0018013B016301900143503E
:10241E004C00454C4200534C4400544545004F542B
:10242E0048005245440000000000FE015E018B0191
:10243E004B02BC019A01AE0100000000EF05C2057F
:10244E001F069805BB05A805990500000000CD07DD
:10245E005E011F061E062020200044442F4D4D2FE6
:0C246E00595959592068683A6D6D0000FA
:00000001FF
